:02000004080AE8
:1000000000000A08F4140A080000060006000501B2
:0800100004027D050000000060
:0400180074110A084D
:10001C0009480A4908B5884205D0094A824202D0EB
:10002C00121A01F05DF80748074A0021121A01F074
:10003C0062F8064808BD00BF0000002064140A08DE
:10004C006800002068000020F8050020F80500205A
:10005C0070B500F05FFB074B074C1E46E41AA40872
:10006C000025A54204D056F8253098470135F8E70D
:10007C0070BD00BF2C140A0860140A0800F011B8F7
:10008C0008B500F01BF8BDE8084000F005BB00F017
:10009C00CDB90078B0FA80F04009704701230370A5
:1000AC00704708B50121082000F03EFE00F032FC3C
:1000BC00BDE808404FF4165100F012BC10B500F02A
:1000CC0029FC0C4900F01BFA00F024FC0446082023
:1000DC0000F03BFE0A220146204600F068FA00F0D0
:1000EC0019FC054900F00BFABDE810404FF4FA700A
:1000FC0000F080BA88110A0897110A0808B500F0B8
:10010C000FF8064B00221A705A804FF6FF729A8035
:10011C000320BDE8084000F005B900BF6C000020CA
:10012C0008B5024B1B681B68019308BDB00106089B
:10013C0008B5024B1B689B68019308BDB00106080B
:10014C0008B5024B1B68DB68019308BDB0010608BB
:10015C0008B5024B1B685B69019308BDB00106082A
:10016C0008B5024B1B68DB69019308BDB401060896
:10017C0008B5024B1B681B6A019308BDB401060845
:10018C0008B5024B1B685B68019308BD9C0106080F
:10019C0008B5024B1B685B69019308BD9C010608FE
:1001AC0008B5024B1B681B6B019308BDD0010608F8
:1001BC0008B5024B1B689B69019308BDC401060876
:1001CC0008B5024B1B685B6A019308BDC4010608A5
:1001DC0008B5024B1B689B6A019308BDC401060855
:1001EC0008B5024B1B68DB6A019308BDC401060805
:1001FC0008B5024B1B681B6B019308BDC4010608B4
:10020C0008B5024B1B685B6B019308BDC401060863
:10021C0008B5024B1B689B6B019308BDC401060813
:10022C0008B5024B1B681B6C019308BDC401060882
:10023C0008B5024B1B681B6E019308BDAC01060888
:10024C0008B5024B1B685B6E019308BDAC01060838
:10025C0008B5024B1B689B6E019308BDAC010608E8
:10026C0008B5024B1B68DB6E019308BDAC01060898
:10027C0008B5024B1B681B6F019308BDAC01060847
:10028C0008B5024B1B685B6F019308BDAC010608F7
:10029C0008B5034B1B68D3F88030019308BD0000F0
:1002AC00AC01060808B5024B1B681B68019308BD1E
:1002BC00D801060808B5024B1B685B68019308BDA2
:1002CC00D801060808B5024B1B681B69019308BDD1
:1002DC00D801060808B5024B1B685B69019308BD81
:1002EC00D801060808B5024B1B689B69019308BD31
:1002FC00D801060808B5024B1B68DB69019308BDE1
:10030C00D801060808B5024B1B681B6A019308BD8F
:10031C00D801060808B5024B1B689B6C019308BDFD
:10032C00C001060808B5024B1B685B68019308BD49
:10033C00A401060808B5024B1B685B69019308BD54
:10034C00A401060808B5034B1B68D3F89030019341
:10035C0008BD0000A401060808B5034B1B68D3F8C0
:10036C009C30019308BD0000A401060808B5024B9F
:10037C001B685B68019308BDC801060808B5024BF1
:10038C001B689B68019308BDC801060808B5024BA1
:10039C001B68DB68019308BDC801060808B5024B51
:1003AC001B681B69019308BDC801060808B5024B00
:1003BC001B685B69019308BDC801060808B5024BB0
:1003CC001B689B69019308BDC801060808B5024B60
:1003DC001B68DB69019308BDC801060808B5024B10
:1003EC001B681B6A019308BDC801060808B5024BBF
:1003FC001B681B6B019308BDC801060808B5024BAE
:10040C001B685B6B019308BDC801060808B5024B5D
:10041C001B68DB6B019308BDCC01060808B5024BC9
:10042C001B681B68019308BDA001060808B5024BA8
:10043C001B685B68019308BDA0010608704710B5E6
:10044C000446102100F0F3FC204610BD70B50446A4
:10045C000E46074B0025036040F80C5FFFF7A0FE2B
:10046C0030462671FFF77CFEA560204670BD00BFAC
:10047C00AC110A080079FFF77BBE00004FF6FF7243
:10048C00034B0020187058809A80FFF74BBF00BFB9
:10049C0072000020F8B506460D468F180024BD42A8
:1004AC000CD0336815F8011B9B6830469847002820
:1004BC0001DB0444F3E7002C08BF04462046F8BDDA
:1004CC0070B505460C46084649B100F045FE2B6850
:1004DC00024621462846BDE87040DB68184770BDCF
:1004EC0003689B68184738B50D210546FFF7F8FFE0
:1004FC000A2104462846FFF7F3FF204438BD38B5DF
:10050C000546FFF7DDFF04462846FFF7ECFF2044C5
:10051C0038BD012A98BF0A2230B50B468BB000219A
:10052C008DF824100DF12304B3FBF2F505FB123307
:10053C00DBB2092B94BF30333733DBB2214604F8DE
:10054C0001392B46002DEFD1FFF7BAFF0BB030BDB0
:10055C0010B422B90368C9B29B6810BC1847D2B258
:10056C0010BCFFF7D6BFFFF7F3BF2DE9F0410746EC
:10057C000E4615462AB9BDE8F0410368C9B29B681E
:10058C0018470A2A02D1002901DA04E0D2B2BDE8E8
:10059C00F041FFF7BEBF2D21FFF7A2FF2A4604460C
:1005AC0071423846FFF7B5FF2044BDE8F08138B5FD
:1005BC000546FFF7DAFF04462846FFF794FF204470
:1005CC0038BD00231A4619464068FFF7EFBE0000FD
:1005DC00014A024B1A6070472A120A087800002060
:1005EC00024B1A68024B1A60704700BF00000020D3
:1005FC007C0000200021FFF79DBE10B583680446E7
:10060C0013B1032201469847204610BD10B504468D
:10061C00FFF7F3FF204610BD034800238360034A15
:10062C00034900F0FFBB00BF8000002068000020E1
:10063C0019060A0808B5144B33B100F06BF90368BE
:10064C001B699847002816DC104B33B100F020FAD8
:10065C0003681B699847002810DC0D4B0BB1AFF3F6
:10066C0000800C4B7BB100F091F903681B69984733
:10067C00002806DC08BDAFF30080E5E7AFF300808F
:10068C00EBE7AFF3008008BD0000000000000000A5
:10069C00000000000000000008B5FFF7CBFFFFF7DB
:1006AC0077FD014B186008BD240500200248034A61
:1006BC000349121A00F014BD0040024004400240ED
:1006CC0060140A0807B5002300931A466FF07701EF
:1006DC00FFF742FE03B05DF804FB000007B543884A
:1006EC000A2B08D0502B09D1094B1B683BB103B026
:1006FC005DF804EB1847FFF7E5FF06E000230093D5
:10070C001A466FF07701FFF727FE03B05DF804FB84
:10071C009000002038B5104C104D2368AB42104BA4
:10072C000CBF012200221A7002D0FFF7BFFF256018
:10073C00FFF726FD044600F0E7FC0A4B13B12046F8
:10074C00AFF3008000210748FFF760FEBDE838409A
:10075C0000210548FFF7F6BD004002401E1C279AF9
:10076C009400002000000000E9060A08704710B54C
:10077C000446182100F05BFB204610BDF8B50F466F
:10078C0000F10806051D002416F8011D0A22384642
:10079C00FFF7E9FEAE42044407D0002CF4D02E2122
:1007AC003846FFF79DFE0444EEE72046F8BD0000F6
:1007BC0010B50446044B112240F8043B002100F014
:1007CC009AFC204610BD00BFCC120A080346074A0B
:1007DC0010B543F8042B01F1100251F8044B91426F
:1007EC0043F8044BF9D10A781A7010BDCC120A08E0
:1007FC00024A41600260042202757047CC120A085A
:10080C0010B59DF8084044EA032343EA024242EA49
:10081C00016104234160037510BD000037B5044D20
:10082C0005609DF818500095FFF7EAFF03B030BD46
:10083C00CC120A0841747047704708B50021007C3F
:10084C00FFF750FD30EA200028BF4FF0FF3008BD05
:10085C0008B50121007CFFF745FD30EA200028BFD8
:10086C004FF0FF3008BD08B5007CFFF733FD20EAE0
:10087C00E07008BD08B5007CFFF724FD20EAE070AD
:10088C0008BD007CFFF73EBD10B50446142100F0F6
:10089C00CEFA204610BD38B50446007C0D46FFF755
:1008AC0019FD002801DC607C28B12946207CFFF76B
:1008BC0021FD20EAE07038BD10B5044600236360CA
:1008CC004FF47A73A360054B08462360012321740F
:1008DC0063741146FFF7E6FC204610BDE0120A08CF
:1008EC000022007CFFF7E6BC10B504461422002160
:1008FC0000F001FC054B20466360054BE36040F2C1
:10090C00011323818123238210BD00BF1D01002010
:10091C009C00002030B50E4D87B001A8FFF7E4FF16
:10092C00296811F0010410D12846FFF7B2FB60B121
:10093C0001AA21460748FFF7BFFF2846FFF7AEFB89
:10094C00054A0649034800F06DFA024807B030BD6D
:10095C0098000020200200206800002045080A08AA
:10096C0010B504461422002100F0C5FB054B2046AF
:10097C006360054BE36040F20113238181232382E2
:10098C0010BD00BFD00200203802002010B50E4C64
:10099C0086B001A8FFF7E4FF2368DB0710D42046DC
:1009AC00FFF777FB60B101AA01210848FFF784FF2C
:1009BC002046FFF773FB064A0649044800F032FA5A
:1009CC00024806B010BD00BF34020020BC0200205B
:1009DC006800002045080A0870474174704708B544
:1009EC00007CFFF71DFC20EAE07008BD08B5007C18
:1009FC00FFF7EEFB20EAE07008BD08B5007CFFF7BE
:100A0C00F7FB30EA200028BF4FF0FF3008BD08B5D7
:100A1C00007CFFF7E5FB30EA200028BF4FF0FF30E9
:100A2C0008BD007CFFF7ECBB10B50446142100F0A8
:100A3C00FEF9204610BD70B5457C04460E4625B91E
:100A4C00007CFFF7EDFB002805DD3146207CBDE87E
:100A5C007040FFF7B5BB284670BD000010B50446CA
:100A6C0008461146002262604FF47A72A260054A71
:100A7C0020742260012262741A46FFF799FB20460B
:100A8C0010BD00BF10130A08007CFFF7C1BB0000AB
:100A9C0038B50C4D296811F0010411D12846FFF727
:100AAC00F8FA68B1084A2146084B0948FFF7D6FF07
:100ABC002846FFF7F3FA074A0749054800F0B2F950
:100ACC00034838BD6C04002070040020E8030020AB
:100ADC00D403002068000020E5090A087047F8B527
:100AEC00064615460C468F18BC4206D0336814F8DF
:100AFC00011B9B6830469847F6E72846F8BD002254
:100B0C00007CFFF795BB0021007CFFF799BB00210F
:100B1C00007CFFF79DBB0021007CFFF7A1BB0021EF
:100B2C00007CFFF7A5BB10B50446142100F07FF93B
:100B3C00204610BD10B5044608464FF47A73A360E6
:100B4C00044B0021207461602360FFF7A1FB204659
:100B5C0010BD00BF40130A080021007CFFF790BBBA
:100B6C00002211464068FFF719BCF0B5164689B053
:100B7C0011220F460446002103A800F0BCFA3046AF
:100B8C0000F0EAFA0025009581B27B6803AA304692
:100B9C00FFF7C0FB20B129462046FFF729FE03E0F2
:100BAC0003A92046FFF712FE204609B0F0BD002233
:100BBC0011464068FFF712BC002211464068FFF74F
:100BCC001DBC00224068FFF711BC002281F001011E
:100BDC004068FFF7FBBB00231A4619464068FFF735
:100BEC00EDBB002211464068FFF7C8BB0022022172
:100BFC004068FFF7CBBB00231A464068FFF7B6BB33
:100C0C00024B04225A60024A1A607047F404002016
:100C1C0068130A0800231A464068FFF7A7BB002296
:100C2C0002214068FFF7B2BB002211464068FFF773
:100C3C00A5BB002211464068FFF7B0BB00231A4643
:100C4C0019464068FFF7B2BB00231A4619464068A4
:100C5C00FFF7B4BB002281F001014068FFF7B6BB7F
:100C6C0000224068FFF7C2BB002211464068FFF724
:100C7C00C5BB002211464068FFF7B0BB70B51646E5
:100C8C008EB0044608A8FFF793FD1122002103A89B
:100C9C0000F031FA304600F05FFA00250A4B00955F
:100CAC0081B25B6803AA3046FFF734FB20B12946BA
:100CBC002046FFF79DFD03E003A92046FFF786FDC4
:100CCC0020460EB070BD00BFF4040020024B034A56
:100CDC001A6000225A607047FC0400209C130A081A
:100CEC0010B504460F48FFF7C5FB28B1A4F10D035E
:100CFC00022B01D8002010BD00F074F8FFF72CFF78
:100D0C0008B1012CF6D9FFF7C3FEFFF7BDFE18B1F1
:100D1C00A4F11203012BEDD9172C8CBF002001205C
:100D2C0010BD00BF04050020172838B504460D4639
:100D3C000AD8FF2908D0FFF7D3FF28B1294620464F
:100D4C00BDE83840FFF7F4B938BD10B50446FFF7DD
:100D5C00F7F90438C0B2012808D92046FFF7C0FFC4
:100D6C0020B12046BDE81040FFF7F2B9002010BDBD
:100D7C0070B50C4C0C4E0D4D00212046FFF766FB58
:100D8C0020460B4C3246294600F04CF801212046F7
:100D9C00FFF75CFB324629462046BDE8704000F068
:100DAC0041B800BF040500206800002049040A086F
:100DBC001405002013B5084C00231A46194600935D
:100DCC002046FFF72BFD2046044A054902B0BDE83A
:100DDC00104000F027B800BF280500206800002054
:100DEC0079070A0838B50B4D296811F001040FD1A9
:100DFC002846FFF74EF958B121460748FFF79AFEEF
:100E0C002846FFF74BF9054A0549034800F00AF854
:100E1C00014838BD40050020440500206800002032
:100E2C00E90A0A080B460146184600F04BB9FFF7D1
:100E3C002EB90000184B1A68D1075CBF01221A604A
:100E4C00164B1A68D2075CBF01221A60144B1A6841
:100E5C00D0075CBF01221A60124B1A68D1075CBF25
:100E6C0001221A60104B1A68D2075CBF01221A606B
:100E7C000E4B1A68D0075CBF01221A600C4B1A6823
:100E8C00D1075CBF01221A600A4B1A68D2075CBFFB
:100E9C0001221A60704700BF740500207005002005
:100EAC006C0500206805002064050020600500200A
:100EBC005C05002058050020244B1A68D0075CBF45
:100ECC0001221A60224B1A68D1075CBF01221A60FA
:100EDC00204B1A68D2075CBF01221A601E4B1A689D
:100EEC00D0075CBF01221A601C4B1A68D1075CBF8B
:100EFC0001221A601A4B1A68D2075CBF01221A60D1
:100F0C00184B1A68D0075CBF01221A60164B1A687E
:100F1C00D1075CBF01221A60144B1A68D2075CBF60
:100F2C0001221A60124B1A68D0075CBF01221A60AA
:100F3C00104B1A68D1075CBF01221A600E4B1A685D
:100F4C00D2075CBF01221A60704700BFA4050020C5
:100F5C00A00500209C050020980500209405002089
:100F6C00900500208C0500208805002084050020B9
:100F7C00800500207C05002078050020244B1A6891
:100F8C00D0075CBF01221A60224B1A68D1075CBFE4
:100F9C0001221A60204B1A68D2075CBF01221A602A
:100FAC001E4B1A68D0075CBF01221A601C4B1A68D2
:100FBC00D1075CBF01221A601A4B1A68D2075CBFBA
:100FCC0001221A60184B1A68D0075CBF01221A6004
:100FDC00164B1A68D1075CBF01221A60144B1A68B1
:100FEC00D2075CBF01221A60124B1A68D0075CBF93
:100FFC0001221A60104B1A68D1075CBF01221A60DB
:10100C000E4B1A68D2075CBF01221A60704700BFF2
:10101C00D4050020D0050020CC050020C8050020F8
:10102C00C4050020C0050020BC050020B805002028
:10103C00B4050020B0050020AC050020A805002058
:10104C00184B1A68D1075CBF01221A60164B1A683C
:10105C00D2075CBF01221A60144B1A68D0075CBF20
:10106C0001221A60124B1A68D1075CBF01221A6068
:10107C00104B1A68D2075CBF01221A600E4B1A681B
:10108C00D0075CBF01221A600C4B1A68D1075CBFF9
:10109C0001221A600A4B1A68D2075CBF01221A603F
:1010AC00704700BFF4050020F0050020EC0500207F
:1010BC00E8050020E4050020E0050020DC05002008
:1010CC00D805002010B5054C13462CB10A46014634
:1010DC000220AFF3008010BD204610BD00000000C0
:1010EC0010B5431E0A44914204D011F8014B03F889
:1010FC00014FF8E710BD03460244934202D003F8B7
:10110C00011BFAE77047000038B5124B05461C6806
:10111C00A36BD3B91820FFF781F943F20E33A06308
:10112C0003804AF6CD33438041F2342383804EF260
:10113C006D63C3804DF6EC630381052343810B2360
:10114C00838101220023C0E90423A36B00221D61CB
:10115C005A6138BD64000020034613F8012B002AA5
:10116C00FBD1181A013870471D000A085D000A08E7
:10117C0089000A088D000A0800000000524541440D
:10118C00494E475F53454E534F520053454E534FB4
:10119C00525F524541440000000000000000000076
:1011AC0049040A084B040A086261756400536572AD
:1011BC0069616C0055534253657269616C310074FE
:1011CC0079706500706172616D00636D64006964B3
:1011DC0000686E64007374726D0066696C74006CE8
:1011EC00766C0061646448616E646C657200726553
:1011FC006D6F766548616E646C657200656E756DB9
:10120C0048616E646C657273004A534F4E5374722E
:10121C0065616D4C6F6748616E646C6572006170DE
:10122C007000253031307520005D20002564002CC5
:10123C00200028293A2000205B00636F6465203D64
:10124C00200025690064657461696C73203D200081
:10125C000D0A0066006C6E00666E00636F646500BC
:10126C0064657461696C006E6F6E650074726163A5
:10127C006500696E666F007761726E006572726FE1
:10128C00720070616E696300616C6C005A00252BF2
:10129C003033643A253032750025592D256D2D25B6
:1012AC00645425483A254D3A2553257A00617363D9
:1012BC0074696D6500000000000000000000000073
:1012CC0089070A0879070A087B070A08000000004A
:1012DC000000000045080A0895080A08A3080A0837
:1012EC00A1040A0881080A0847080A085D080A08C8
:1012FC008F080A0873080A0841080A080000000051
:10130C0000000000E5090A08350A0A08430A0A0821
:10131C00A1040A08F9090A081B0A0A08070A0A089C
:10132C002F0A0A08E7090A08EB090A08000000005E
:10133C0000000000E90A0A08330B0A080B0B0A0824
:10134C00EB0A0A08130B0A081B0B0A08230B0A08E2
:10135C002B0B0A080000000000000000030C0A0818
:10136C00F90B0A08EF0B0A086D0B0A08CF050A08DF
:10137C00E30B0A08D70B0A08CF0B0A08C50B0A089F
:10138C00BB0B0A08770B0A080000000000000000E5
:10139C00210C0A082B0C0A08350C0A083F0C0A0809
:1013AC00490C0A08550C0A08610C0A086D0C0A084D
:1013BC00750C0A087F0C0A08890C0A08000000004A
:1013CC000000000000000000000000000000000011
:1013DC000000000000000000000000000000000001
:1013EC0000000000000000000000000000000000F1
:1013FC0000000000000000000000000000000000E1
:10140C0000000000000000000000000000000000D0
:10141C00000000000000000000000000430000007D
:10142C0009010A0889040A08DD050A08ED050A08FD
:10143C0025060A080D0C0A08D90C0A087D0D0A08A5
:10144C00C10D0A08410E0A08C50E0A08890F0A08C0
:04145C004D100A081D
:041460000000000088
:10146400B9120A0800000000C8130A08E8130A08A1
:1014740008140A080000000000000000000000003A
:101484000000000028140A0800000000000000000A
:101494000000000000000000000000000000000048
:1014A4000000000000000000000000000000000038
:1014B4000000000000000000000000000000000028
:0814C4000000000004000020FC
:1014CC00FFFFFFFF00000102030405060708090ADD
:1014DC000B0C0D0E0F101112131415161718191AD8
:0814EC001B1C1D1E1F2028001F
:0414F40078563412E0
:04000005080A001CC9
:00000001FF
